S0180000646F6F725F6C6F636B5F73797374656D2E737265634C
S113000045C0000053C0000051C000004FC00000B4
S11300104DC000004BC0000049C0000047C00000B4
S113002045C0000043C0000041C000003FC00000C4
S11300303DC000003BC0000039C0000037C00000D4
S113004035C0000033C0000031C000002FC00000E4
S11300502DC000002BC0000029C0000027C00000F4
S113006025C0000023C0000021C000001FC0000004
S11300701DC000001BC0000019C0000017C0000014
S113008015C0000013C0000011C0000011241FBEE1
S1130090CFEFD0E1DEBFCDBF21E0A0E0B1E001C0F1
S11300A01D92A230B207E1F729D057C0A9CF9BBD5A
S11300B08ABD08959093900089B989E08AB986E051
S11300C08093950008958FB780688FBF8FEF87BBAB
S11300D084BB87E690E0EEDF8FE683BF82EA8FBDC4
S11300E08AE18EBD12BE1DBC1CBC8CE987BD8FE3AA
S11300F086BD08955D9BFECF8CB90895E4DF8EEA3A
S11301009BE0D5DF2FEF89E698E1215080409040B5
S1130110E1F700C000008091000190910101009777
S113012019F0019729F007C081E690E0E3DF03C0EE
S113013082E690E0DFDF8091000190910101019659
S113014081709078992324F401978E6F9F6F0196A4
S11101509093010180930001D5CFF894FFCF66
S9030000FC
