:1000000045C0000053C0000051C000004FC00000B8
:100010004DC000004BC0000049C0000047C00000B8
:1000200045C0000043C0000041C000003FC00000C8
:100030003DC000003BC0000039C0000037C00000D8
:1000400035C0000033C0000032C000002FC00000E7
:1000500038C000002BC0000029C0000027C00000ED
:1000600025C0000023C0000021C000001FC0000008
:100070001DC000001BC0000019C0000017C0000018
:1000800015C0000013C0000011C0000011241FBEE5
:10009000CFEFD0E1DEBFCDBF21E0A0E0B1E001C0F5
:1000A0001D92AB36B207E1F76FD090C0A9CF1F9277
:1000B0000F920FB60F9211240F900FBE0F901F904A
:1000C00018951F920F920FB60F9211240BB60F9234
:1000D0008F93EF93FF93E091680180916901E81796
:1000E00010F0569809C081E08E0F80936801F0E00F
:1000F000EE5FFE4F83A98CB9FF91EF918F910F9026
:100100000BBE0F900FBE0F901F9018959BBD8ABD20
:10011000089522E022B99093900089B989E08AB9C4
:1001200086E080939500089578948FEF87BB87E6EB
:1001300090E0EFDF8FE683BF82EA8FBD8AE18EBD5C
:1001400012BE1DBC1CBC8CE987BD8FE386BD089523
:10015000E2E0F1E081E683AB82E684AB83E685AB47
:1001600084E686AB85E687AB86E680AF8AE081AF22
:100170005D9BFECF81E68CB981E08093680187E0CA
:1001800080936901569A0895CFDF88E497E1BEDF36
:100190002FE788E391E0215080409040E1F700C0D4
:1001A000000081E690E0D4DF809100019091010190
:1001B000019681709078992324F401978E6F9F6F38
:1001C00001969093010180930001E2CFF894FFCF54
:00000001FF
